{
  "_format": "hh-sol-artifact-1",
  "contractName": "TokenVendor",
  "sourceName": "contracts/TokenVendor.sol",
  "abi": [
    {
      "inputs": [
        {
          "internalType": "address",
          "name": "tokenAddress",
          "type": "address"
        }
      ],
      "stateMutability": "nonpayable",
      "type": "constructor"
    },
    {
      "inputs": [],
      "name": "buyTokens",
      "outputs": [],
      "stateMutability": "payable",
      "type": "function"
    },
    {
      "inputs": [],
      "name": "carbonCreditToken",
      "outputs": [
        {
          "internalType": "contract IERC20",
          "name": "",
          "type": "address"
        }
      ],
      "stateMutability": "view",
      "type": "function"
    },
    {
      "inputs": [
        {
          "internalType": "uint256",
          "name": "tokenAmount",
          "type": "uint256"
        }
      ],
      "name": "claimTokens",
      "outputs": [],
      "stateMutability": "nonpayable",
      "type": "function"
    },
    {
      "inputs": [],
      "name": "owner",
      "outputs": [
        {
          "internalType": "address",
          "name": "",
          "type": "address"
        }
      ],
      "stateMutability": "view",
      "type": "function"
    },
    {
      "inputs": [
        {
          "internalType": "uint256",
          "name": "tokenAmount",
          "type": "uint256"
        }
      ],
      "name": "sellTokens",
      "outputs": [],
      "stateMutability": "nonpayable",
      "type": "function"
    },
    {
      "inputs": [
        {
          "internalType": "uint256",
          "name": "newPrice",
          "type": "uint256"
        }
      ],
      "name": "setTokenPrice",
      "outputs": [],
      "stateMutability": "nonpayable",
      "type": "function"
    },
    {
      "inputs": [],
      "name": "tokenPrice",
      "outputs": [
        {
          "internalType": "uint256",
          "name": "",
          "type": "uint256"
        }
      ],
      "stateMutability": "view",
      "type": "function"
    },
    {
      "inputs": [],
      "name": "withdraw",
      "outputs": [],
      "stateMutability": "nonpayable",
      "type": "function"
    }
  ],
  "bytecode": "0x608060405266038d7ea4c6800060025534801561001b57600080fd5b50604051610ef4380380610ef4833981810160405281019061003d9190610127565b806000806101000a81548173ffffffffffffffffffffffffffffffffffffffff021916908373ffffffffffffffffffffffffffffffffffffffff16021790555033600160006101000a81548173ffffffffffffffffffffffffffffffffffffffff021916908373ffffffffffffffffffffffffffffffffffffffff16021790555050610154565b600080fd5b600073ffffffffffffffffffffffffffffffffffffffff82169050919050565b60006100f4826100c9565b9050919050565b610104816100e9565b811461010f57600080fd5b50565b600081519050610121816100fb565b92915050565b60006020828403121561013d5761013c6100c4565b5b600061014b84828501610112565b91505092915050565b610d91806101636000396000f3fe60806040526004361061007b5760003560e01c80636c11bcd31161004e5780636c11bcd3146101145780637ff9b5961461013d5780638da5cb5b14610168578063d0febe4c146101935761007b565b80633ccfd60b1461008057806346e04a2f1461009757806366dea358146100c05780636a61e5fc146100eb575b600080fd5b34801561008c57600080fd5b5061009561019d565b005b3480156100a357600080fd5b506100be60048036038101906100b991906107bd565b610298565b005b3480156100cc57600080fd5b506100d561033a565b6040516100e29190610869565b60405180910390f35b3480156100f757600080fd5b50610112600480360381019061010d91906107bd565b61035e565b005b34801561012057600080fd5b5061013b600480360381019061013691906107bd565b6103f8565b005b34801561014957600080fd5b5061015261057c565b60405161015f9190610893565b60405180910390f35b34801561017457600080fd5b5061017d610582565b60405161018a91906108cf565b60405180910390f35b61019b6105a8565b005b600160009054906101000a900473ffffffffffffffffffffffffffffffffffffffff1673ffffffffffffffffffffffffffffffffffffffff163373ffffffffffffffffffffffffffffffffffffffff161461022d576040517f08c379a000000000000000000000000000000000000000000000000000000000815260040161022490610947565b60405180910390fd5b600160009054906101000a900473ffffffffffffffffffffffffffffffffffffffff1673ffffffffffffffffffffffffffffffffffffffff166108fc479081150290604051600060405180830381858888f19350505050158015610295573d6000803e3d6000fd5b50565b60008054906101000a900473ffffffffffffffffffffffffffffffffffffffff1673ffffffffffffffffffffffffffffffffffffffff1663a9059cbb33836040518363ffffffff1660e01b81526004016102f3929190610967565b6020604051808303816000875af1158015610312573d6000803e3d6000fd5b505050506040513d601f19601f8201168201806040525081019061033691906109c8565b5050565b60008054906101000a900473ffffffffffffffffffffffffffffffffffffffff1681565b600160009054906101000a900473ffffffffffffffffffffffffffffffffffffffff1673ffffffffffffffffffffffffffffffffffffffff163373ffffffffffffffffffffffffffffffffffffffff16146103ee576040517f08c379a00000000000000000000000000000000000000000000000000000000081526004016103e590610a41565b60405180910390fd5b8060028190555050565b6000811161043b576040517f08c379a000000000000000000000000000000000000000000000000000000000815260040161043290610aad565b60405180910390fd5b60006002548261044b9190610afc565b905080471015610490576040517f08c379a000000000000000000000000000000000000000000000000000000000815260040161048790610b8a565b60405180910390fd5b60008054906101000a900473ffffffffffffffffffffffffffffffffffffffff1673ffffffffffffffffffffffffffffffffffffffff166323b872dd3330856040518463ffffffff1660e01b81526004016104ed93929190610baa565b6020604051808303816000875af115801561050c573d6000803e3d6000fd5b505050506040513d601f19601f8201168201806040525081019061053091906109c8565b503373ffffffffffffffffffffffffffffffffffffffff166108fc829081150290604051600060405180830381858888f19350505050158015610577573d6000803e3d6000fd5b505050565b60025481565b600160009054906101000a900473ffffffffffffffffffffffffffffffffffffffff1681565b600034116105eb576040517f08c379a00000000000000000000000000000000000000000000000000000000081526004016105e290610c2d565b60405180910390fd5b6000600254346105fb9190610c7c565b905060008060009054906101000a900473ffffffffffffffffffffffffffffffffffffffff1673ffffffffffffffffffffffffffffffffffffffff166370a08231306040518263ffffffff1660e01b815260040161065991906108cf565b602060405180830381865afa158015610676573d6000803e3d6000fd5b505050506040513d601f19601f8201168201806040525081019061069a9190610cc2565b9050818110156106df576040517f08c379a00000000000000000000000000000000000000000000000000000000081526004016106d690610d3b565b60405180910390fd5b60008054906101000a900473ffffffffffffffffffffffffffffffffffffffff1673ffffffffffffffffffffffffffffffffffffffff1663a9059cbb33846040518363ffffffff1660e01b815260040161073a929190610967565b6020604051808303816000875af1158015610759573d6000803e3d6000fd5b505050506040513d601f19601f8201168201806040525081019061077d91906109c8565b505050565b600080fd5b6000819050919050565b61079a81610787565b81146107a557600080fd5b50565b6000813590506107b781610791565b92915050565b6000602082840312156107d3576107d2610782565b5b60006107e1848285016107a8565b91505092915050565b600073ffffffffffffffffffffffffffffffffffffffff82169050919050565b6000819050919050565b600061082f61082a610825846107ea565b61080a565b6107ea565b9050919050565b600061084182610814565b9050919050565b600061085382610836565b9050919050565b61086381610848565b82525050565b600060208201905061087e600083018461085a565b92915050565b61088d81610787565b82525050565b60006020820190506108a86000830184610884565b92915050565b60006108b9826107ea565b9050919050565b6108c9816108ae565b82525050565b60006020820190506108e460008301846108c0565b92915050565b600082825260208201905092915050565b7f4f6e6c79206f776e65722063616e207769746864726177000000000000000000600082015250565b60006109316017836108ea565b915061093c826108fb565b602082019050919050565b6000602082019050818103600083015261096081610924565b9050919050565b600060408201905061097c60008301856108c0565b6109896020830184610884565b9392505050565b60008115159050919050565b6109a581610990565b81146109b057600080fd5b50565b6000815190506109c28161099c565b92915050565b6000602082840312156109de576109dd610782565b5b60006109ec848285016109b3565b91505092915050565b7f4f6e6c79206f776e65722063616e207365742070726963650000000000000000600082015250565b6000610a2b6018836108ea565b9150610a36826109f5565b602082019050919050565b60006020820190508181036000830152610a5a81610a1e565b9050919050565b7f5370656369667920746f6b656e20616d6f756e7420746f2073656c6c00000000600082015250565b6000610a97601c836108ea565b9150610aa282610a61565b602082019050919050565b60006020820190508181036000830152610ac681610a8a565b9050919050565b7f4e487b7100000000000000000000000000000000000000000000000000000000600052601160045260246000fd5b6000610b0782610787565b9150610b1283610787565b9250828202610b2081610787565b91508282048414831517610b3757610b36610acd565b5b5092915050565b7f56656e646f722068617320696e73756666696369656e74204554480000000000600082015250565b6000610b74601b836108ea565b9150610b7f82610b3e565b602082019050919050565b60006020820190508181036000830152610ba381610b67565b9050919050565b6000606082019050610bbf60008301866108c0565b610bcc60208301856108c0565b610bd96040830184610884565b949350505050565b7f53656e642045544820746f2062757920746f6b656e7300000000000000000000600082015250565b6000610c176016836108ea565b9150610c2282610be1565b602082019050919050565b60006020820190508181036000830152610c4681610c0a565b9050919050565b7f4e487b7100000000000000000000000000000000000000000000000000000000600052601260045260246000fd5b6000610c8782610787565b9150610c9283610787565b925082610ca257610ca1610c4d565b5b828204905092915050565b600081519050610cbc81610791565b92915050565b600060208284031215610cd857610cd7610782565b5b6000610ce684828501610cad565b91505092915050565b7f56656e646f722068617320696e73756666696369656e7420746f6b656e730000600082015250565b6000610d25601e836108ea565b9150610d3082610cef565b602082019050919050565b60006020820190508181036000830152610d5481610d18565b905091905056fea2646970667358221220c2219bfe3ca471ee745931134806f7088685f05e76bc5a954e5201ba2feeb7c764736f6c63430008140033",
  "linkReferences": {},
  "deployedLinkReferences": {}
}